{
  "contractName": "DutchAuction",
  "abi": [
    {
      "constant": true,
      "inputs": [],
      "name": "price_floor",
      "outputs": [
        {
          "name": "",
          "type": "uint256"
        }
      ],
      "payable": false,
      "stateMutability": "view",
      "type": "function"
    },
    {
      "constant": true,
      "inputs": [],
      "name": "final_price",
      "outputs": [
        {
          "name": "",
          "type": "uint256"
        }
      ],
      "payable": false,
      "stateMutability": "view",
      "type": "function"
    },
    {
      "constant": true,
      "inputs": [],
      "name": "end_time",
      "outputs": [
        {
          "name": "",
          "type": "uint256"
        }
      ],
      "payable": false,
      "stateMutability": "view",
      "type": "function"
    },
    {
      "constant": true,
      "inputs": [],
      "name": "max_bid_limit",
      "outputs": [
        {
          "name": "",
          "type": "uint256"
        }
      ],
      "payable": false,
      "stateMutability": "view",
      "type": "function"
    },
    {
      "constant": true,
      "inputs": [],
      "name": "token_decimals",
      "outputs": [
        {
          "name": "",
          "type": "uint256"
        }
      ],
      "payable": false,
      "stateMutability": "view",
      "type": "function"
    },
    {
      "constant": true,
      "inputs": [],
      "name": "price_ceiling",
      "outputs": [
        {
          "name": "",
          "type": "uint256"
        }
      ],
      "payable": false,
      "stateMutability": "view",
      "type": "function"
    },
    {
      "constant": true,
      "inputs": [],
      "name": "wallet",
      "outputs": [
        {
          "name": "",
          "type": "address"
        }
      ],
      "payable": false,
      "stateMutability": "view",
      "type": "function"
    },
    {
      "constant": true,
      "inputs": [
        {
          "name": "",
          "type": "address"
        }
      ],
      "name": "bids_list",
      "outputs": [
        {
          "name": "",
          "type": "uint256"
        }
      ],
      "payable": false,
      "stateMutability": "view",
      "type": "function"
    },
    {
      "constant": true,
      "inputs": [],
      "name": "token_inventory",
      "outputs": [
        {
          "name": "",
          "type": "uint256"
        }
      ],
      "payable": false,
      "stateMutability": "view",
      "type": "function"
    },
    {
      "constant": true,
      "inputs": [],
      "name": "final_block",
      "outputs": [
        {
          "name": "",
          "type": "uint256"
        }
      ],
      "payable": false,
      "stateMutability": "view",
      "type": "function"
    },
    {
      "constant": true,
      "inputs": [],
      "name": "start_time",
      "outputs": [
        {
          "name": "",
          "type": "uint256"
        }
      ],
      "payable": false,
      "stateMutability": "view",
      "type": "function"
    },
    {
      "constant": true,
      "inputs": [],
      "name": "owner",
      "outputs": [
        {
          "name": "",
          "type": "address"
        }
      ],
      "payable": false,
      "stateMutability": "view",
      "type": "function"
    },
    {
      "constant": true,
      "inputs": [],
      "name": "require_wei_at_current_price",
      "outputs": [
        {
          "name": "",
          "type": "uint256"
        }
      ],
      "payable": false,
      "stateMutability": "view",
      "type": "function"
    },
    {
      "constant": true,
      "inputs": [],
      "name": "claimed_ether",
      "outputs": [
        {
          "name": "",
          "type": "uint256"
        }
      ],
      "payable": false,
      "stateMutability": "view",
      "type": "function"
    },
    {
      "constant": true,
      "inputs": [],
      "name": "start_block",
      "outputs": [
        {
          "name": "",
          "type": "uint256"
        }
      ],
      "payable": false,
      "stateMutability": "view",
      "type": "function"
    },
    {
      "constant": true,
      "inputs": [],
      "name": "stage",
      "outputs": [
        {
          "name": "",
          "type": "uint8"
        }
      ],
      "payable": false,
      "stateMutability": "view",
      "type": "function"
    },
    {
      "constant": true,
      "inputs": [],
      "name": "auction_decay_time",
      "outputs": [
        {
          "name": "",
          "type": "uint256"
        }
      ],
      "payable": false,
      "stateMutability": "view",
      "type": "function"
    },
    {
      "constant": true,
      "inputs": [],
      "name": "token",
      "outputs": [
        {
          "name": "",
          "type": "address"
        }
      ],
      "payable": false,
      "stateMutability": "view",
      "type": "function"
    },
    {
      "inputs": [
        {
          "name": "_wallet",
          "type": "address"
        },
        {
          "name": "_price_ceiling",
          "type": "uint256"
        },
        {
          "name": "_price_floor",
          "type": "uint256"
        },
        {
          "name": "_auction_decay_time",
          "type": "uint256"
        }
      ],
      "payable": false,
      "stateMutability": "nonpayable",
      "type": "constructor"
    },
    {
      "payable": true,
      "stateMutability": "payable",
      "type": "fallback"
    },
    {
      "anonymous": false,
      "inputs": [
        {
          "indexed": true,
          "name": "_price_ceiling",
          "type": "uint256"
        },
        {
          "indexed": true,
          "name": "_price_floor",
          "type": "uint256"
        },
        {
          "indexed": false,
          "name": "_auction_decay_time",
          "type": "uint256"
        }
      ],
      "name": "Deployed",
      "type": "event"
    },
    {
      "anonymous": false,
      "inputs": [],
      "name": "Config",
      "type": "event"
    },
    {
      "anonymous": false,
      "inputs": [
        {
          "indexed": true,
          "name": "_start_time",
          "type": "uint256"
        },
        {
          "indexed": true,
          "name": "_start_block",
          "type": "uint256"
        },
        {
          "indexed": false,
          "name": "auction_decay_time",
          "type": "uint256"
        }
      ],
      "name": "AuctionStarted",
      "type": "event"
    },
    {
      "anonymous": false,
      "inputs": [
        {
          "indexed": true,
          "name": "_sender",
          "type": "address"
        },
        {
          "indexed": false,
          "name": "_amount",
          "type": "uint256"
        },
        {
          "indexed": false,
          "name": "_remaining_tokens",
          "type": "uint256"
        }
      ],
      "name": "BidReceived",
      "type": "event"
    },
    {
      "anonymous": false,
      "inputs": [
        {
          "indexed": false,
          "name": "receiver_address",
          "type": "address"
        },
        {
          "indexed": false,
          "name": "amount",
          "type": "uint256"
        }
      ],
      "name": "TokenReceived",
      "type": "event"
    },
    {
      "anonymous": false,
      "inputs": [
        {
          "indexed": false,
          "name": "final_price",
          "type": "uint256"
        },
        {
          "indexed": false,
          "name": "end_time",
          "type": "uint256"
        },
        {
          "indexed": false,
          "name": "final_block",
          "type": "uint256"
        }
      ],
      "name": "AuctionEnded",
      "type": "event"
    },
    {
      "anonymous": false,
      "inputs": [],
      "name": "AllTokensClaimed",
      "type": "event"
    },
    {
      "constant": false,
      "inputs": [
        {
          "name": "_token_address",
          "type": "address"
        }
      ],
      "name": "config",
      "outputs": [],
      "payable": false,
      "stateMutability": "nonpayable",
      "type": "function"
    },
    {
      "constant": false,
      "inputs": [],
      "name": "startAuction",
      "outputs": [],
      "payable": false,
      "stateMutability": "nonpayable",
      "type": "function"
    },
    {
      "constant": false,
      "inputs": [],
      "name": "endAuction",
      "outputs": [],
      "payable": false,
      "stateMutability": "nonpayable",
      "type": "function"
    },
    {
      "constant": false,
      "inputs": [],
      "name": "bid",
      "outputs": [],
      "payable": true,
      "stateMutability": "payable",
      "type": "function"
    },
    {
      "constant": false,
      "inputs": [
        {
          "name": "receiver_address",
          "type": "address"
        }
      ],
      "name": "proxytokenClaim",
      "outputs": [
        {
          "name": "",
          "type": "bool"
        }
      ],
      "payable": false,
      "stateMutability": "nonpayable",
      "type": "function"
    },
    {
      "constant": true,
      "inputs": [],
      "name": "price",
      "outputs": [
        {
          "name": "",
          "type": "uint256"
        }
      ],
      "payable": false,
      "stateMutability": "view",
      "type": "function"
    },
    {
      "constant": true,
      "inputs": [],
      "name": "remainingTokens",
      "outputs": [
        {
          "name": "",
          "type": "uint256"
        }
      ],
      "payable": false,
      "stateMutability": "view",
      "type": "function"
    }
  ],
  "bytecode": "0x6080604052674563918244f400006000553480156200001d57600080fd5b5060405160808062001631833981018060405260808110156200003f57600080fd5b8101908080519060200190929190805190602001909291908051906020019092919080519060200190929190505050600073ffffffffffffffffffffffffffffffffffffffff168473ffffffffffffffffffffffffffffffffffffffff161415620000a957600080fd5b83600560006101000a81548173ffffffffffffffffffffffffffffffffffffffff021916908373ffffffffffffffffffffffffffffffffffffffff16021790555033600460006101000a81548173ffffffffffffffffffffffffffffffffffffffff021916908373ffffffffffffffffffffffffffffffffffffffff1602179055506000601160006101000a81548160ff021916908360048111156200014b57fe5b021790555062000163838383620001a660201b60201c565b81837f4bfc64d3f76cb5538a27075be8bd59cf2f99da138d13aea2087b608e19916e33836040518082815260200191505060405180910390a35050505062000221565b6000806004811115620001b557fe5b601160009054906101000a900460ff166004811115620001d157fe5b14620001dc57600080fd5b60008411620001ea57600080fd5b60008311620001f857600080fd5b600082116200020657600080fd5b83600681905550826007819055508160098190555050505050565b61140080620002316000396000f3fe6080604052600436106101665760003560e01c80636b64c769116100d1578063b87fb3db1161008a578063d57dff0e11610064578063d57dff0e146105bc578063ee7efafc14610625578063fc0c546a14610650578063fe67a54b146106a757610166565b8063b87fb3db1461052d578063bf58390314610558578063c040e6b81461058357610166565b80636b64c76914610413578063834ee4171461042a5780638da5cb5b14610455578063a035b1fe146104ac578063af64fc0f146104d7578063b87c6c031461050257610166565b80633c4b303d116101235780633c4b303d146102ab5780634808f62a146102d6578063521eb27314610301578063584f3a39146103585780635d0d66ee146103bd578063636eb0c2146103e857610166565b80630720ca0f146101a457806308b309e3146101cf5780630e68ec95146101fa578063162433561461024b5780631998aeef146102765780631d8c844314610280575b600280600481111561017457fe5b601160009054906101000a900460ff16600481111561018f57fe5b1461019957600080fd5b6101a16106be565b50005b3480156101b057600080fd5b506101b96108dd565b6040518082815260200191505060405180910390f35b3480156101db57600080fd5b506101e46108e3565b6040518082815260200191505060405180910390f35b34801561020657600080fd5b506102496004803603602081101561021d57600080fd5b81019080803573ffffffffffffffffffffffffffffffffffffffff1690602001909291905050506108e9565b005b34801561025757600080fd5b50610260610b93565b6040518082815260200191505060405180910390f35b61027e6106be565b005b34801561028c57600080fd5b50610295610b99565b6040518082815260200191505060405180910390f35b3480156102b757600080fd5b506102c0610b9f565b6040518082815260200191505060405180910390f35b3480156102e257600080fd5b506102eb610ba5565b6040518082815260200191505060405180910390f35b34801561030d57600080fd5b50610316610bab565b604051808273ffffffffffffffffffffffffffffffffffffffff1673ffffffffffffffffffffffffffffffffffffffff16815260200191505060405180910390f35b34801561036457600080fd5b506103a76004803603602081101561037b57600080fd5b81019080803573ffffffffffffffffffffffffffffffffffffffff169060200190929190505050610bd1565b6040518082815260200191505060405180910390f35b3480156103c957600080fd5b506103d2610be9565b6040518082815260200191505060405180910390f35b3480156103f457600080fd5b506103fd610bef565b6040518082815260200191505060405180910390f35b34801561041f57600080fd5b50610428610bf5565b005b34801561043657600080fd5b5061043f610cf6565b6040518082815260200191505060405180910390f35b34801561046157600080fd5b5061046a610cfc565b604051808273ffffffffffffffffffffffffffffffffffffffff1673ffffffffffffffffffffffffffffffffffffffff16815260200191505060405180910390f35b3480156104b857600080fd5b506104c1610d22565b6040518082815260200191505060405180910390f35b3480156104e357600080fd5b506104ec610d98565b6040518082815260200191505060405180910390f35b34801561050e57600080fd5b50610517610d9e565b6040518082815260200191505060405180910390f35b34801561053957600080fd5b50610542610da4565b6040518082815260200191505060405180910390f35b34801561056457600080fd5b5061056d610daa565b6040518082815260200191505060405180910390f35b34801561058f57600080fd5b50610598610de7565b604051808260048111156105a857fe5b60ff16815260200191505060405180910390f35b3480156105c857600080fd5b5061060b600480360360208110156105df57600080fd5b81019080803573ffffffffffffffffffffffffffffffffffffffff169060200190929190505050610dfa565b604051808215151515815260200191505060405180910390f35b34801561063157600080fd5b5061063a611249565b6040518082815260200191505060405180910390f35b34801561065c57600080fd5b5061066561124f565b604051808273ffffffffffffffffffffffffffffffffffffffff1673ffffffffffffffffffffffffffffffffffffffff16815260200191505060405180910390f35b3480156106b357600080fd5b506106bc611275565b005b60028060048111156106cc57fe5b601160009054906101000a900460ff1660048111156106e757fe5b146106f157600080fd5b600034116106fe57600080fd5b60005434601260003373ffffffffffffffffffffffffffffffffffffffff1673ffffffffffffffffffffffffffffffffffffffff1681526020019081526020016000205401111561074e57600080fd5b3434601260003373ffffffffffffffffffffffffffffffffffffffff1673ffffffffffffffffffffffffffffffffffffffff1681526020019081526020016000205401101561079957fe5b60006107a3610daa565b90508034106107b157600080fd5b34601260003373ffffffffffffffffffffffffffffffffffffffff1673ffffffffffffffffffffffffffffffffffffffff1681526020019081526020016000206000828254019250508190555034600260008282540192505081905550600560009054906101000a900473ffffffffffffffffffffffffffffffffffffffff1673ffffffffffffffffffffffffffffffffffffffff166108fc349081150290604051600060405180830381858888f19350505050158015610876573d6000803e3d6000fd5b503373ffffffffffffffffffffffffffffffffffffffff167f7f06de72678b8f755d2b9cce42fb004f364fad13cafec8e3b43e8808d9db828c3483604051808381526020018281526020019250505060405180910390a23460025410156108d957fe5b5050565b60075481565b60085481565b600460009054906101000a900473ffffffffffffffffffffffffffffffffffffffff1673ffffffffffffffffffffffffffffffffffffffff163373ffffffffffffffffffffffffffffffffffffffff161461094357600080fd5b600080600481111561095157fe5b601160009054906101000a900460ff16600481111561096c57fe5b1461097657600080fd5b600073ffffffffffffffffffffffffffffffffffffffff168273ffffffffffffffffffffffffffffffffffffffff1614156109b057600080fd5b600160009054906101000a900473ffffffffffffffffffffffffffffffffffffffff1673ffffffffffffffffffffffffffffffffffffffff166370a08231306040518263ffffffff1660e01b8152600401808273ffffffffffffffffffffffffffffffffffffffff1673ffffffffffffffffffffffffffffffffffffffff16815260200191505060206040518083038186803b158015610a4f57600080fd5b505afa158015610a63573d6000803e3d6000fd5b505050506040513d6020811015610a7957600080fd5b8101908080519060200190929190505050600f81905550600160009054906101000a900473ffffffffffffffffffffffffffffffffffffffff1673ffffffffffffffffffffffffffffffffffffffff1663313ce5676040518163ffffffff1660e01b815260040160206040518083038186803b158015610af857600080fd5b505afa158015610b0c573d6000803e3d6000fd5b505050506040513d6020811015610b2257600080fd5b810190808051906020019092919050505060ff16600a0a6003819055506001601160006101000a81548160ff02191690836004811115610b5e57fe5b02179055507ffedfd53593ef6a34f5a6e470dac4ac6f8e81e4445608eb4b5cb135f43d19811d60405160405180910390a15050565b600b5481565b60005481565b60035481565b60065481565b600560009054906101000a900473ffffffffffffffffffffffffffffffffffffffff1681565b60126020528060005260406000206000915090505481565b600f5481565b600e5481565b600460009054906101000a900473ffffffffffffffffffffffffffffffffffffffff1673ffffffffffffffffffffffffffffffffffffffff163373ffffffffffffffffffffffffffffffffffffffff1614610c4f57600080fd5b6001806004811115610c5d57fe5b601160009054906101000a900460ff166004811115610c7857fe5b14610c8257600080fd5b6002601160006101000a81548160ff02191690836004811115610ca157fe5b021790555042600a8190555043600d81905550600d54600a547f44c53be110c6aa83aa83cd02e351ed172359268272ee1b5d31c0fe48db35c6c76009546040518082815260200191505060405180910390a350565b600a5481565b600460009054906101000a900473ffffffffffffffffffffffffffffffffffffffff1681565b600060036004811115610d3157fe5b601160009054906101000a900460ff166004811115610d4c57fe5b1480610d7c5750600480811115610d5f57fe5b601160009054906101000a900460ff166004811115610d7a57fe5b145b15610d8a5760009050610d95565b610d9261135c565b90505b90565b600c5481565b60105481565b600d5481565b600080600354610db8610d22565b600f540281610dc357fe5b0490506002548111610dd9576000915050610de4565b600254600c54039150505b90565b601160009054906101000a900460ff1681565b60006003806004811115610e0a57fe5b601160009054906101000a900460ff166004811115610e2557fe5b14610e2f57600080fd5b600073ffffffffffffffffffffffffffffffffffffffff168373ffffffffffffffffffffffffffffffffffffffff161415610e6957600080fd5b6000601260008573ffffffffffffffffffffffffffffffffffffffff1673ffffffffffffffffffffffffffffffffffffffff168152602001908152602001600020541415610eba5760009150611243565b6000600854601260008673ffffffffffffffffffffffffffffffffffffffff1673ffffffffffffffffffffffffffffffffffffffff168152602001908152602001600020546003540281610f0a57fe5b0490506000600160009054906101000a900473ffffffffffffffffffffffffffffffffffffffff1673ffffffffffffffffffffffffffffffffffffffff166370a08231306040518263ffffffff1660e01b8152600401808273ffffffffffffffffffffffffffffffffffffffff1673ffffffffffffffffffffffffffffffffffffffff16815260200191505060206040518083038186803b158015610fae57600080fd5b505afa158015610fc2573d6000803e3d6000fd5b505050506040513d6020811015610fd857600080fd5b8101908080519060200190929190505050905080821115610ff7578091505b601260008673ffffffffffffffffffffffffffffffffffffffff1673ffffffffffffffffffffffffffffffffffffffff168152602001908152602001600020546010600082825401925050819055506000601260008773ffffffffffffffffffffffffffffffffffffffff1673ffffffffffffffffffffffffffffffffffffffff16815260200190815260200160002081905550600160009054906101000a900473ffffffffffffffffffffffffffffffffffffffff1673ffffffffffffffffffffffffffffffffffffffff1663a9059cbb86846040518363ffffffff1660e01b8152600401808373ffffffffffffffffffffffffffffffffffffffff1673ffffffffffffffffffffffffffffffffffffffff16815260200182815260200192505050602060405180830381600087803b15801561113457600080fd5b505af1158015611148573d6000803e3d6000fd5b505050506040513d602081101561115e57600080fd5b810190808051906020019092919050505061117857600080fd5b7f47998b4998056cd0448b356cfcb8cb0eb18fa00844e43e71947e22fcb6fd43ef8583604051808373ffffffffffffffffffffffffffffffffffffffff1673ffffffffffffffffffffffffffffffffffffffff1681526020018281526020019250505060405180910390a16002546010541415611240576004601160006101000a81548160ff0219169083600481111561120e57fe5b02179055507fcbe248318393199f16248e41017445f9da65a1e439ce593d55a85fe8dc100b3f60405160405180910390a15b50505b50919050565b60095481565b600160009054906101000a900473ffffffffffffffffffffffffffffffffffffffff1681565b600280600481111561128357fe5b601160009054906101000a900460ff16600481111561129e57fe5b146112a857600080fd5b60006112b2610daa565b9050600081146112c157600080fd5b600f5460025460035402816112d257fe5b0460088190555042600b8190555043600e819055506003601160006101000a81548160ff0219169083600481111561130657fe5b02179055507f02e3b2fea29cf6e561a51ffc4d68d233b0358b5aade05b3d98b7a7efbe75c8c1600854600b54600e5460405180848152602001838152602001828152602001935050505060405180910390a15050565b60008060006007546006540390506002600481111561137757fe5b601160009054906101000a900460ff16600481111561139257fe5b14156113a057600a54420391505b600954600a54420310156113c9578060095483816113ba57fe5b040260065403925050506113d1565b600754925050505b9056fea165627a7a72305820e03798d9f85d3a780d4070f6e13e9cc4fab48806f9d5ef4e2b075c53357248c30029",
  "source": "pragma solidity ^0.5.8;\n\n// Import Token here\nimport './Token.sol';\n\ncontract DutchAuction {\n\n    /*Storage*/\n\n    // Per address bidding limit in ether\n    uint public max_bid_limit = 5 ether;\n\n    ///Addresses\n    Token public token;\n\n    // Amount of wei raised by auction\n    uint wei_amount;\n\n    // Decimals of Token\n    uint public token_decimals;\n\n    // address of the contract owner\n    address public owner;\n\n    // address of recipient of ICO funds\n    address payable public wallet;\n\n    /// Auction Parameters\n\n    // starting price\n    uint public price_ceiling;\n\n    // lowest price possible \n    uint public price_floor;\n\n    // final price of auction\n    uint public final_price;\n\n    // length of auction price decay\n    uint public auction_decay_time;\n\n    // starting time \n    uint public start_time;\n\n    //Ending time\n    uint public end_time;\n\n    //Price of token at current auction price\n    uint public require_wei_at_current_price;\n\n    // starting block\n    uint public start_block;\n\n    // final block\n    uint public final_block;\n\n    // Tokens to sell\n    uint public token_inventory;\n\n    uint public claimed_ether;\n\n    Stages public stage;\n\n    ///Mapping a bidders' wallet address to their bid\n    mapping (address => uint) public bids_list;\n\n    enum Stages {\n        AuctionDeployed,\n        AuctionConfig,\n        AuctionStarted,\n        AuctionEnded,\n        TokensClaimed\n    }\n\n    /* Modifiers */\n\n    modifier atStage(Stages _stage) {\n        require(stage == _stage);\n        _;\n    }\n\n    // Import onlyOwner from OpenZeppelin?\n    modifier isOwner() {\n        require(msg.sender == owner);\n        _;\n    }\n\n    /* Events */\n\n    event Deployed(\n        uint indexed _price_ceiling,\n        uint indexed _price_floor,\n        uint _auction_decay_time\n    );\n\n    event Config();\n\n    event AuctionStarted(\n        uint indexed _start_time,\n        uint indexed _start_block,\n        uint auction_decay_time\n\n    );\n\n    event BidReceived(\n        address indexed _sender,\n        uint _amount,\n        uint _remaining_tokens\n    );\n\n    // Edit here later \n    event TokenReceived(\n        address payable receiver_address, \n        uint amount\n    );\n\n    // Finalized?\n    event AuctionEnded(\n       uint final_price, \n       uint end_time, \n       uint final_block\n    );\n\n    // In finalized?\n    event AllTokensClaimed();\n\n    /// Put in Constructor Here\n    constructor(address payable _wallet, uint _price_ceiling, uint _price_floor, uint _auction_decay_time) public {\n        require(_wallet != address(0x0));\n        wallet = _wallet;\n        owner = msg.sender;\n        stage = Stages.AuctionDeployed;\n        changeConfig(_price_ceiling, _price_floor, _auction_decay_time);\n        emit Deployed(_price_ceiling, _price_floor,_auction_decay_time);\n    }\n\n    // Fallback Function\n    function () external payable atStage(Stages.AuctionStarted) {\n        bid();\n    }\n\n    function config(address _token_address) public isOwner atStage(Stages.AuctionDeployed) {\n        require(_token_address != address(0x0));\n        //token = Dutchtoken(_token_address);\n\n        //Tokens to sell\n        token_inventory = token.balanceOf(address(this));\n\n        token_decimals = 10 ** uint(token.decimals());\n\n        stage = Stages.AuctionConfig;\n        emit Config();\n    }\n\n    function changeConfig(\n        uint _price_ceiling,\n        uint _price_floor,\n        uint _auction_decay_time)\n        atStage(Stages.AuctionDeployed)\n        internal\n    {\n        require(_price_ceiling > 0);\n        require(_price_floor > 0);\n        require(_auction_decay_time > 0);\n\n        price_ceiling = _price_ceiling;\n        price_floor = _price_floor;\n        auction_decay_time = _auction_decay_time;\n    }    \n\n    function startAuction() public isOwner atStage(Stages.AuctionConfig) {\n        stage = Stages.AuctionStarted;\n        start_time = now;\n        start_block = block.number;\n        emit AuctionStarted(start_time, start_block, auction_decay_time);\n    }\n\n\n    function endAuction() public atStage(Stages.AuctionStarted) {\n\n        uint remaining_wei = remainingTokens();\n        require(remaining_wei == 0);\n\n        final_price = token_decimals * wei_amount / token_inventory;\n\n        end_time = now;\n        final_block = block.number;\n        stage = Stages.AuctionEnded;\n        emit AuctionEnded(final_price, end_time, final_block);\n    }\n\n    function bid()\n        public \n        payable\n        atStage(Stages.AuctionStarted)\n    {\n        require(msg.value > 0);\n        require(bids_list[msg.sender] + msg.value <= max_bid_limit);\n        assert(bids_list[msg.sender] + msg.value >= msg.value);\n\n        uint remaining_token_supply = remainingTokens();\n\n        require(msg.value < remaining_token_supply);\n\n        bids_list[msg.sender] +=msg.value;\n        wei_amount += msg.value;\n\n        wallet.transfer(msg.value);\n\n        emit BidReceived(msg.sender, msg.value, remaining_token_supply);\n\n        assert(wei_amount >= msg.value);\n    }    \n\n    function proxytokenClaim(address payable receiver_address)\n    public \n    atStage(Stages.AuctionEnded)\n    returns(bool)\n    {\n        // Put in waiting time?\n\n        require(receiver_address != address(0x0));\n\n        if (bids_list[receiver_address] == 0) {\n            return false;\n        }\n\n        uint amount = (token_decimals * bids_list[receiver_address]) / final_price;\n\n        uint auction_token_balance = token.balanceOf(address(this));\n        if (amount > auction_token_balance) {\n            amount = auction_token_balance;\n        }\n\n        claimed_ether += bids_list[receiver_address];\n\n        bids_list[receiver_address] = 0;\n\n        require(token.transfer(receiver_address, amount));\n\n        emit TokenReceived(receiver_address, amount);\n\n        if (claimed_ether == wei_amount) {\n            stage = Stages.TokensClaimed;\n           emit AllTokensClaimed();\n        }\n    }\n\n    function price() public view returns (uint) {\n        if (stage == Stages.AuctionEnded ||\n            stage == Stages.TokensClaimed) {\n            return 0;\n        }\n        return tokenPrice();\n    }\n\n    function remainingTokens() view public returns (uint) {\n\n        uint required_wei_at_current_price = token_inventory * price() / token_decimals;\n        if (required_wei_at_current_price <= wei_amount) {\n            return 0;\n        }\n\n        // why is this commented out?\n        // assert(required_wei_at_current_price - wei_amount > 0)\n        return require_wei_at_current_price - wei_amount;\n    }\n\n    /* Private Function */\n    function tokenPrice() view private returns(uint){\n        uint auction_time;\n        uint price_factor = price_ceiling - price_floor;\n\n        if (stage == Stages.AuctionStarted){\n            auction_time = now - start_time;\n        }\n        if (now - start_time < auction_decay_time){\n            return price_ceiling - (auction_time / auction_decay_time)*(price_factor);\n        }\n        else {\n            return price_floor;\n        }\n    }\n}\n\n",
  "sourcePath": "/Users/christianvolckaert/Desktop/Javascript/Dutch/contracts/DutchAuction.sol",
  "compiler": {
    "name": "solc",
    "version": "0.5.8+commit.23d335f2.Emscripten.clang"
  },
  "schemaVersion": "3.0.11",
  "updatedAt": "2019-07-15T16:57:57.099Z",
  "devdoc": {
    "methods": {}
  },
  "userdoc": {
    "methods": {
      "constructor": "Put in Constructor Here"
    }
  }
}